{
  "abi": [
    {
      "inputs": [
        {
          "internalType": "address",
          "name": "defaultAdmin",
          "type": "address"
        }
      ],
      "stateMutability": "nonpayable",
      "type": "constructor"
    },
    {
      "inputs": [],
      "name": "AccessControlBadConfirmation",
      "type": "error"
    },
    {
      "inputs": [
        {
          "internalType": "address",
          "name": "account",
          "type": "address"
        },
        {
          "internalType": "bytes32",
          "name": "neededRole",
          "type": "bytes32"
        }
      ],
      "name": "AccessControlUnauthorizedAccount",
      "type": "error"
    },
    {
      "anonymous": false,
      "inputs": [
        {
          "indexed": true,
          "internalType": "address",
          "name": "_address",
          "type": "address"
        },
        {
          "indexed": true,
          "internalType": "uint256",
          "name": "_index",
          "type": "uint256"
        },
        {
          "indexed": false,
          "internalType": "contract UrbanCryptToken[]",
          "name": "_tokens",
          "type": "address[]"
        },
        {
          "indexed": false,
          "internalType": "uint256[]",
          "name": "_rewards",
          "type": "uint256[]"
        }
      ],
      "name": "RecordApproved",
      "type": "event"
    },
    {
      "anonymous": false,
      "inputs": [
        {
          "indexed": true,
          "internalType": "address",
          "name": "_address",
          "type": "address"
        },
        {
          "indexed": true,
          "internalType": "uint256",
          "name": "_index",
          "type": "uint256"
        },
        {
          "indexed": false,
          "internalType": "string",
          "name": "_metadataLink",
          "type": "string"
        }
      ],
      "name": "RecordPublished",
      "type": "event"
    },
    {
      "anonymous": false,
      "inputs": [
        {
          "indexed": true,
          "internalType": "address",
          "name": "_address",
          "type": "address"
        },
        {
          "indexed": true,
          "internalType": "uint256",
          "name": "_index",
          "type": "uint256"
        },
        {
          "indexed": false,
          "internalType": "string",
          "name": "_reason",
          "type": "string"
        }
      ],
      "name": "RecordRejected",
      "type": "event"
    },
    {
      "anonymous": false,
      "inputs": [
        {
          "indexed": true,
          "internalType": "bytes32",
          "name": "role",
          "type": "bytes32"
        },
        {
          "indexed": true,
          "internalType": "bytes32",
          "name": "previousAdminRole",
          "type": "bytes32"
        },
        {
          "indexed": true,
          "internalType": "bytes32",
          "name": "newAdminRole",
          "type": "bytes32"
        }
      ],
      "name": "RoleAdminChanged",
      "type": "event"
    },
    {
      "anonymous": false,
      "inputs": [
        {
          "indexed": true,
          "internalType": "bytes32",
          "name": "role",
          "type": "bytes32"
        },
        {
          "indexed": true,
          "internalType": "address",
          "name": "account",
          "type": "address"
        },
        {
          "indexed": true,
          "internalType": "address",
          "name": "sender",
          "type": "address"
        }
      ],
      "name": "RoleGranted",
      "type": "event"
    },
    {
      "anonymous": false,
      "inputs": [
        {
          "indexed": true,
          "internalType": "bytes32",
          "name": "role",
          "type": "bytes32"
        },
        {
          "indexed": true,
          "internalType": "address",
          "name": "account",
          "type": "address"
        },
        {
          "indexed": true,
          "internalType": "address",
          "name": "sender",
          "type": "address"
        }
      ],
      "name": "RoleRevoked",
      "type": "event"
    },
    {
      "inputs": [],
      "name": "CONTROLLER",
      "outputs": [
        {
          "internalType": "bytes32",
          "name": "",
          "type": "bytes32"
        }
      ],
      "stateMutability": "view",
      "type": "function"
    },
    {
      "inputs": [],
      "name": "DEFAULT_ADMIN_ROLE",
      "outputs": [
        {
          "internalType": "bytes32",
          "name": "",
          "type": "bytes32"
        }
      ],
      "stateMutability": "view",
      "type": "function"
    },
    {
      "inputs": [
        {
          "internalType": "address",
          "name": "_address",
          "type": "address"
        },
        {
          "internalType": "uint256",
          "name": "_index",
          "type": "uint256"
        },
        {
          "internalType": "contract UrbanCryptToken[]",
          "name": "_tokens",
          "type": "address[]"
        },
        {
          "internalType": "uint256[]",
          "name": "_rewards",
          "type": "uint256[]"
        }
      ],
      "name": "approveRecord",
      "outputs": [],
      "stateMutability": "nonpayable",
      "type": "function"
    },
    {
      "inputs": [
        {
          "internalType": "address",
          "name": "_address",
          "type": "address"
        }
      ],
      "name": "getRecordsByAddress",
      "outputs": [
        {
          "components": [
            {
              "internalType": "enum Collector.RecordStatus",
              "name": "status",
              "type": "uint8"
            },
            {
              "internalType": "uint256",
              "name": "timestamp",
              "type": "uint256"
            },
            {
              "internalType": "string",
              "name": "metadataLink",
              "type": "string"
            }
          ],
          "internalType": "struct Collector.Record[]",
          "name": "",
          "type": "tuple[]"
        }
      ],
      "stateMutability": "view",
      "type": "function"
    },
    {
      "inputs": [
        {
          "internalType": "bytes32",
          "name": "role",
          "type": "bytes32"
        }
      ],
      "name": "getRoleAdmin",
      "outputs": [
        {
          "internalType": "bytes32",
          "name": "",
          "type": "bytes32"
        }
      ],
      "stateMutability": "view",
      "type": "function"
    },
    {
      "inputs": [
        {
          "internalType": "bytes32",
          "name": "role",
          "type": "bytes32"
        },
        {
          "internalType": "address",
          "name": "account",
          "type": "address"
        }
      ],
      "name": "grantRole",
      "outputs": [],
      "stateMutability": "nonpayable",
      "type": "function"
    },
    {
      "inputs": [
        {
          "internalType": "bytes32",
          "name": "role",
          "type": "bytes32"
        },
        {
          "internalType": "address",
          "name": "account",
          "type": "address"
        }
      ],
      "name": "hasRole",
      "outputs": [
        {
          "internalType": "bool",
          "name": "",
          "type": "bool"
        }
      ],
      "stateMutability": "view",
      "type": "function"
    },
    {
      "inputs": [
        {
          "internalType": "string",
          "name": "_metadataLink",
          "type": "string"
        }
      ],
      "name": "publishRecord",
      "outputs": [
        {
          "internalType": "uint256",
          "name": "",
          "type": "uint256"
        }
      ],
      "stateMutability": "nonpayable",
      "type": "function"
    },
    {
      "inputs": [
        {
          "internalType": "address",
          "name": "",
          "type": "address"
        },
        {
          "internalType": "uint256",
          "name": "",
          "type": "uint256"
        }
      ],
      "name": "recordsByAddress",
      "outputs": [
        {
          "internalType": "enum Collector.RecordStatus",
          "name": "status",
          "type": "uint8"
        },
        {
          "internalType": "uint256",
          "name": "timestamp",
          "type": "uint256"
        },
        {
          "internalType": "string",
          "name": "metadataLink",
          "type": "string"
        }
      ],
      "stateMutability": "view",
      "type": "function"
    },
    {
      "inputs": [
        {
          "internalType": "address",
          "name": "_address",
          "type": "address"
        },
        {
          "internalType": "uint256",
          "name": "_index",
          "type": "uint256"
        },
        {
          "internalType": "string",
          "name": "_reason",
          "type": "string"
        }
      ],
      "name": "rejectRecord",
      "outputs": [],
      "stateMutability": "nonpayable",
      "type": "function"
    },
    {
      "inputs": [
        {
          "internalType": "bytes32",
          "name": "role",
          "type": "bytes32"
        },
        {
          "internalType": "address",
          "name": "callerConfirmation",
          "type": "address"
        }
      ],
      "name": "renounceRole",
      "outputs": [],
      "stateMutability": "nonpayable",
      "type": "function"
    },
    {
      "inputs": [
        {
          "internalType": "bytes32",
          "name": "role",
          "type": "bytes32"
        },
        {
          "internalType": "address",
          "name": "account",
          "type": "address"
        }
      ],
      "name": "revokeRole",
      "outputs": [],
      "stateMutability": "nonpayable",
      "type": "function"
    },
    {
      "inputs": [
        {
          "internalType": "bytes4",
          "name": "interfaceId",
          "type": "bytes4"
        }
      ],
      "name": "supportsInterface",
      "outputs": [
        {
          "internalType": "bool",
          "name": "",
          "type": "bool"
        }
      ],
      "stateMutability": "view",
      "type": "function"
    }
  ],
  "bytecode": {
    "object": "0x608060405234801561001057600080fd5b5060405162001358380380620013588339810160408190526100319161011a565b61003c60008261006e565b506100677f70546d1c92f8c2132ae23a23f5177aa8526356051c7510df99f50e012d2215298261006e565b505061014a565b6000828152602081815260408083206001600160a01b038516845290915281205460ff16610110576000838152602081815260408083206001600160a01b03861684529091529020805460ff191660011790556100c83390565b6001600160a01b0316826001600160a01b0316847f2f8788117e7eff1d82e926ec794901d17c78024a50270940304540a733656f0d60405160405180910390a4506001610114565b5060005b92915050565b60006020828403121561012c57600080fd5b81516001600160a01b038116811461014357600080fd5b9392505050565b6111fe806200015a6000396000f3fe608060405234801561001057600080fd5b50600436106100cf5760003560e01c806368449b171161008c578063a217fddf11610066578063a217fddf146101c3578063ad88bb27146101cb578063d547741f146101eb578063ee0fc121146101fe57600080fd5b806368449b171461017b5780636d7415851461019d57806391d14854146101b057600080fd5b806301ffc9a7146100d4578063248a9ca3146100fc5780632f2ff15d1461012d57806330b843f81461014257806336568abe1461015557806337d958e114610168575b600080fd5b6100e76100e2366004610bbd565b610225565b60405190151581526020015b60405180910390f35b61011f61010a366004610bee565b60009081526020819052604090206001015490565b6040519081526020016100f3565b61014061013b366004610c1c565b61025c565b005b610140610150366004610c98565b610287565b610140610163366004610c1c565b610534565b610140610176366004610d66565b61056c565b61018e610189366004610dc2565b6106f0565b6040516100f393929190610e6c565b61011f6101ab366004610e9b565b6107c0565b6100e76101be366004610c1c565b6108ea565b61011f600081565b6101de6101d9366004610edd565b610913565b6040516100f39190610efa565b6101406101f9366004610c1c565b610a51565b61011f7f70546d1c92f8c2132ae23a23f5177aa8526356051c7510df99f50e012d22152981565b60006001600160e01b03198216637965db0b60e01b148061025657506301ffc9a760e01b6001600160e01b03198316145b92915050565b60008281526020819052604090206001015461027781610a76565b6102818383610a83565b50505050565b7f70546d1c92f8c2132ae23a23f5177aa8526356051c7510df99f50e012d2215296102b181610a76565b83158015906102bf57508382145b6103105760405162461bcd60e51b815260206004820152601a60248201527f436f6c6c6563746f723a20496e76616c6964207265776172647300000000000060448201526064015b60405180910390fd5b6001600160a01b03871660009081526001602052604090205486106103725760405162461bcd60e51b8152602060048201526018602482015277086ded8d8cac6e8dee4744092dcecc2d8d2c840d2dcc8caf60431b6044820152606401610307565b6001600160a01b038716600090815260016020526040812080548890811061039c5761039c610f84565b6000918252602082206003909102019150815460ff1660028111156103c3576103c3610dee565b146104105760405162461bcd60e51b815260206004820181905260248201527f436f6c6c6563746f723a207265636f7264206973206e6f742070656e64696e676044820152606401610307565b805460ff1916600217815560005b858110156104e15786868281811061043857610438610f84565b905060200201602081019061044d9190610edd565b6001600160a01b03166340c10f198a87878581811061046e5761046e610f84565b6040516001600160e01b031960e087901b1681526001600160a01b0390941660048501526020029190910135602483015250604401600060405180830381600087803b1580156104bd57600080fd5b505af11580156104d1573d6000803e3d6000fd5b50506001909201915061041e9050565b5086886001600160a01b03167fd76f9f894179213d22e9f41a178b2cf364542f6094483c87a56c2c20eb795883888888886040516105229493929190610f9a565b60405180910390a35050505050505050565b6001600160a01b038116331461055d5760405163334bd91960e11b815260040160405180910390fd5b6105678282610b15565b505050565b7f70546d1c92f8c2132ae23a23f5177aa8526356051c7510df99f50e012d22152961059681610a76565b6001600160a01b03851660009081526001602052604090205484106105f85760405162461bcd60e51b8152602060048201526018602482015277086ded8d8cac6e8dee4744092dcecc2d8d2c840d2dcc8caf60431b6044820152606401610307565b6001600160a01b038516600090815260016020526040812080548690811061062257610622610f84565b6000918252602082206003909102019150815460ff16600281111561064957610649610dee565b146106965760405162461bcd60e51b815260206004820181905260248201527f436f6c6c6563746f723a207265636f7264206973206e6f742070656e64696e676044820152606401610307565b805460ff1916600117815560405185906001600160a01b038816907f67813150e12a88a933a212e01460fbb9da398d9f273927860439f64efac5538f906106e09088908890611018565b60405180910390a3505050505050565b6001602052816000526040600020818154811061070c57600080fd5b600091825260209091206003909102018054600182015460028301805460ff90931695509093509061073d90611047565b80601f016020809104026020016040519081016040528092919081815260200182805461076990611047565b80156107b65780601f1061078b576101008083540402835291602001916107b6565b820191906000526020600020905b81548152906001019060200180831161079957829003601f168201915b5050505050905083565b33600090815260016020526040808220815160608101909252908083815260200142815260200185858080601f016020809104026020016040519081016040528093929190818152602001838380828437600092018290525093909452505083546001818101865594825260209091208351600390920201805493949093919250839160ff19169083600281111561085a5761085a610dee565b0217905550602082015160018201556040820151600282019061087d90826110e7565b505033600090815260016020819052604082205491925061089d916111a7565b905080336001600160a01b03167f2b5796444160e835d994e281f3f1862b46586207a729eb04929eeccd473a822a86866040516108db929190611018565b60405180910390a39392505050565b6000918252602082815260408084206001600160a01b0393909316845291905290205460ff1690565b6001600160a01b0381166000908152600160209081526040808320805482518185028101850190935280835260609492939192909184015b82821015610a46576000848152602090206040805160608101909152600384029091018054829060ff16600281111561098657610986610dee565b600281111561099757610997610dee565b8152602001600182015481526020016002820180546109b590611047565b80601f01602080910402602001604051908101604052809291908181526020018280546109e190611047565b8015610a2e5780601f10610a0357610100808354040283529160200191610a2e565b820191906000526020600020905b815481529060010190602001808311610a1157829003601f168201915b5050505050815250508152602001906001019061094b565b505050509050919050565b600082815260208190526040902060010154610a6c81610a76565b6102818383610b15565b610a808133610b80565b50565b6000610a8f83836108ea565b610b0d576000838152602081815260408083206001600160a01b03861684529091529020805460ff19166001179055610ac53390565b6001600160a01b0316826001600160a01b0316847f2f8788117e7eff1d82e926ec794901d17c78024a50270940304540a733656f0d60405160405180910390a4506001610256565b506000610256565b6000610b2183836108ea565b15610b0d576000838152602081815260408083206001600160a01b0386168085529252808320805460ff1916905551339286917ff6391f5c32d9c69d2a47ea670b442974b53935d1edc7fd64eb21e047a839171b9190a4506001610256565b610b8a82826108ea565b610bb95760405163e2517d3f60e01b81526001600160a01b038216600482015260248101839052604401610307565b5050565b600060208284031215610bcf57600080fd5b81356001600160e01b031981168114610be757600080fd5b9392505050565b600060208284031215610c0057600080fd5b5035919050565b6001600160a01b0381168114610a8057600080fd5b60008060408385031215610c2f57600080fd5b823591506020830135610c4181610c07565b809150509250929050565b60008083601f840112610c5e57600080fd5b50813567ffffffffffffffff811115610c7657600080fd5b6020830191508360208260051b8501011115610c9157600080fd5b9250929050565b60008060008060008060808789031215610cb157600080fd5b8635610cbc81610c07565b955060208701359450604087013567ffffffffffffffff80821115610ce057600080fd5b610cec8a838b01610c4c565b90965094506060890135915080821115610d0557600080fd5b50610d1289828a01610c4c565b979a9699509497509295939492505050565b60008083601f840112610d3657600080fd5b50813567ffffffffffffffff811115610d4e57600080fd5b602083019150836020828501011115610c9157600080fd5b60008060008060608587031215610d7c57600080fd5b8435610d8781610c07565b935060208501359250604085013567ffffffffffffffff811115610daa57600080fd5b610db687828801610d24565b95989497509550505050565b60008060408385031215610dd557600080fd5b8235610de081610c07565b946020939093013593505050565b634e487b7160e01b600052602160045260246000fd5b60038110610e2257634e487b7160e01b600052602160045260246000fd5b9052565b6000815180845260005b81811015610e4c57602081850181015186830182015201610e30565b506000602082860101526020601f19601f83011685010191505092915050565b610e768185610e04565b826020820152606060408201526000610e926060830184610e26565b95945050505050565b60008060208385031215610eae57600080fd5b823567ffffffffffffffff811115610ec557600080fd5b610ed185828601610d24565b90969095509350505050565b600060208284031215610eef57600080fd5b8135610be781610c07565b600060208083018184528085518083526040925060408601915060408160051b87010184880160005b83811015610f7657603f1989840301855281516060610f43858351610e04565b88820151898601528782015191508088860152610f6281860183610e26565b968901969450505090860190600101610f23565b509098975050505050505050565b634e487b7160e01b600052603260045260246000fd5b6040808252810184905260008560608301825b87811015610fdd578235610fc081610c07565b6001600160a01b0316825260209283019290910190600101610fad565b5083810360208501528481526001600160fb1b03851115610ffd57600080fd5b8460051b915081866020830137016020019695505050505050565b60208152816020820152818360408301376000818301604090810191909152601f909201601f19160101919050565b600181811c9082168061105b57607f821691505b60208210810361107b57634e487b7160e01b600052602260045260246000fd5b50919050565b634e487b7160e01b600052604160045260246000fd5b601f821115610567576000816000526020600020601f850160051c810160208610156110c05750805b601f850160051c820191505b818110156110df578281556001016110cc565b505050505050565b815167ffffffffffffffff81111561110157611101611081565b6111158161110f8454611047565b84611097565b602080601f83116001811461114a57600084156111325750858301515b600019600386901b1c1916600185901b1785556110df565b600085815260208120601f198616915b828110156111795788860151825594840194600190910190840161115a565b50858210156111975787850151600019600388901b60f8161c191681555b5050505050600190811b01905550565b8181038181111561025657634e487b7160e01b600052601160045260246000fdfea2646970667358221220a97e899e8e59c2374d52382f1ba6fe84bb1119439a9fea2b99643d089b3a608964736f6c63430008170033",
    "linkReferences": {}
  },
  "methodIdentifiers": {
    "CONTROLLER()": "ee0fc121",
    "DEFAULT_ADMIN_ROLE()": "a217fddf",
    "approveRecord(address,uint256,address[],uint256[])": "30b843f8",
    "getRecordsByAddress(address)": "ad88bb27",
    "getRoleAdmin(bytes32)": "248a9ca3",
    "grantRole(bytes32,address)": "2f2ff15d",
    "hasRole(bytes32,address)": "91d14854",
    "publishRecord(string)": "6d741585",
    "recordsByAddress(address,uint256)": "68449b17",
    "rejectRecord(address,uint256,string)": "37d958e1",
    "renounceRole(bytes32,address)": "36568abe",
    "revokeRole(bytes32,address)": "d547741f",
    "supportsInterface(bytes4)": "01ffc9a7"
  },
  "id": 24
}