{
  "abi": [
    {
      "inputs": [
        {
          "internalType": "address",
          "name": "defaultAdmin",
          "type": "address"
        }
      ],
      "stateMutability": "nonpayable",
      "type": "constructor"
    },
    {
      "inputs": [],
      "name": "AccessControlBadConfirmation",
      "type": "error"
    },
    {
      "inputs": [
        {
          "internalType": "address",
          "name": "account",
          "type": "address"
        },
        {
          "internalType": "bytes32",
          "name": "neededRole",
          "type": "bytes32"
        }
      ],
      "name": "AccessControlUnauthorizedAccount",
      "type": "error"
    },
    {
      "anonymous": false,
      "inputs": [
        {
          "indexed": true,
          "internalType": "address",
          "name": "_address",
          "type": "address"
        },
        {
          "indexed": true,
          "internalType": "uint256",
          "name": "_index",
          "type": "uint256"
        },
        {
          "indexed": false,
          "internalType": "contract UrbanCryptToken[]",
          "name": "_tokens",
          "type": "address[]"
        },
        {
          "indexed": false,
          "internalType": "uint256[]",
          "name": "_rewards",
          "type": "uint256[]"
        }
      ],
      "name": "RecordApproved",
      "type": "event"
    },
    {
      "anonymous": false,
      "inputs": [
        {
          "indexed": true,
          "internalType": "address",
          "name": "_address",
          "type": "address"
        },
        {
          "indexed": false,
          "internalType": "string",
          "name": "_metadataLink",
          "type": "string"
        }
      ],
      "name": "RecordPublished",
      "type": "event"
    },
    {
      "anonymous": false,
      "inputs": [
        {
          "indexed": true,
          "internalType": "address",
          "name": "_address",
          "type": "address"
        },
        {
          "indexed": true,
          "internalType": "uint256",
          "name": "_index",
          "type": "uint256"
        },
        {
          "indexed": false,
          "internalType": "string",
          "name": "_reason",
          "type": "string"
        }
      ],
      "name": "RecordRejected",
      "type": "event"
    },
    {
      "anonymous": false,
      "inputs": [
        {
          "indexed": true,
          "internalType": "bytes32",
          "name": "role",
          "type": "bytes32"
        },
        {
          "indexed": true,
          "internalType": "bytes32",
          "name": "previousAdminRole",
          "type": "bytes32"
        },
        {
          "indexed": true,
          "internalType": "bytes32",
          "name": "newAdminRole",
          "type": "bytes32"
        }
      ],
      "name": "RoleAdminChanged",
      "type": "event"
    },
    {
      "anonymous": false,
      "inputs": [
        {
          "indexed": true,
          "internalType": "bytes32",
          "name": "role",
          "type": "bytes32"
        },
        {
          "indexed": true,
          "internalType": "address",
          "name": "account",
          "type": "address"
        },
        {
          "indexed": true,
          "internalType": "address",
          "name": "sender",
          "type": "address"
        }
      ],
      "name": "RoleGranted",
      "type": "event"
    },
    {
      "anonymous": false,
      "inputs": [
        {
          "indexed": true,
          "internalType": "bytes32",
          "name": "role",
          "type": "bytes32"
        },
        {
          "indexed": true,
          "internalType": "address",
          "name": "account",
          "type": "address"
        },
        {
          "indexed": true,
          "internalType": "address",
          "name": "sender",
          "type": "address"
        }
      ],
      "name": "RoleRevoked",
      "type": "event"
    },
    {
      "inputs": [],
      "name": "CONTROLLER",
      "outputs": [
        {
          "internalType": "bytes32",
          "name": "",
          "type": "bytes32"
        }
      ],
      "stateMutability": "view",
      "type": "function"
    },
    {
      "inputs": [],
      "name": "DEFAULT_ADMIN_ROLE",
      "outputs": [
        {
          "internalType": "bytes32",
          "name": "",
          "type": "bytes32"
        }
      ],
      "stateMutability": "view",
      "type": "function"
    },
    {
      "inputs": [
        {
          "internalType": "address",
          "name": "_address",
          "type": "address"
        },
        {
          "internalType": "uint256",
          "name": "_index",
          "type": "uint256"
        },
        {
          "internalType": "contract UrbanCryptToken[]",
          "name": "_tokens",
          "type": "address[]"
        },
        {
          "internalType": "uint256[]",
          "name": "_rewards",
          "type": "uint256[]"
        }
      ],
      "name": "approveRecord",
      "outputs": [],
      "stateMutability": "nonpayable",
      "type": "function"
    },
    {
      "inputs": [
        {
          "internalType": "bytes32",
          "name": "role",
          "type": "bytes32"
        }
      ],
      "name": "getRoleAdmin",
      "outputs": [
        {
          "internalType": "bytes32",
          "name": "",
          "type": "bytes32"
        }
      ],
      "stateMutability": "view",
      "type": "function"
    },
    {
      "inputs": [
        {
          "internalType": "bytes32",
          "name": "role",
          "type": "bytes32"
        },
        {
          "internalType": "address",
          "name": "account",
          "type": "address"
        }
      ],
      "name": "grantRole",
      "outputs": [],
      "stateMutability": "nonpayable",
      "type": "function"
    },
    {
      "inputs": [
        {
          "internalType": "bytes32",
          "name": "role",
          "type": "bytes32"
        },
        {
          "internalType": "address",
          "name": "account",
          "type": "address"
        }
      ],
      "name": "hasRole",
      "outputs": [
        {
          "internalType": "bool",
          "name": "",
          "type": "bool"
        }
      ],
      "stateMutability": "view",
      "type": "function"
    },
    {
      "inputs": [
        {
          "internalType": "string",
          "name": "_metadataLink",
          "type": "string"
        }
      ],
      "name": "publishRecord",
      "outputs": [
        {
          "internalType": "uint256",
          "name": "",
          "type": "uint256"
        }
      ],
      "stateMutability": "nonpayable",
      "type": "function"
    },
    {
      "inputs": [
        {
          "internalType": "address",
          "name": "",
          "type": "address"
        },
        {
          "internalType": "uint256",
          "name": "",
          "type": "uint256"
        }
      ],
      "name": "recordsByAddress",
      "outputs": [
        {
          "internalType": "enum Collector.RecordStatus",
          "name": "status",
          "type": "uint8"
        },
        {
          "internalType": "uint256",
          "name": "timestamp",
          "type": "uint256"
        },
        {
          "internalType": "string",
          "name": "metadataLink",
          "type": "string"
        }
      ],
      "stateMutability": "view",
      "type": "function"
    },
    {
      "inputs": [
        {
          "internalType": "address",
          "name": "_address",
          "type": "address"
        },
        {
          "internalType": "uint256",
          "name": "_index",
          "type": "uint256"
        },
        {
          "internalType": "string",
          "name": "_reason",
          "type": "string"
        }
      ],
      "name": "rejectRecord",
      "outputs": [],
      "stateMutability": "nonpayable",
      "type": "function"
    },
    {
      "inputs": [
        {
          "internalType": "bytes32",
          "name": "role",
          "type": "bytes32"
        },
        {
          "internalType": "address",
          "name": "callerConfirmation",
          "type": "address"
        }
      ],
      "name": "renounceRole",
      "outputs": [],
      "stateMutability": "nonpayable",
      "type": "function"
    },
    {
      "inputs": [
        {
          "internalType": "bytes32",
          "name": "role",
          "type": "bytes32"
        },
        {
          "internalType": "address",
          "name": "account",
          "type": "address"
        }
      ],
      "name": "revokeRole",
      "outputs": [],
      "stateMutability": "nonpayable",
      "type": "function"
    },
    {
      "inputs": [
        {
          "internalType": "bytes4",
          "name": "interfaceId",
          "type": "bytes4"
        }
      ],
      "name": "supportsInterface",
      "outputs": [
        {
          "internalType": "bool",
          "name": "",
          "type": "bool"
        }
      ],
      "stateMutability": "view",
      "type": "function"
    }
  ],
  "bytecode": {
    "object": "0x608060405234801561001057600080fd5b5060405161112d38038061112d83398101604081905261002f91610118565b61003a60008261006c565b506100657f70546d1c92f8c2132ae23a23f5177aa8526356051c7510df99f50e012d2215298261006c565b5050610148565b6000828152602081815260408083206001600160a01b038516845290915281205460ff1661010e576000838152602081815260408083206001600160a01b03861684529091529020805460ff191660011790556100c63390565b6001600160a01b0316826001600160a01b0316847f2f8788117e7eff1d82e926ec794901d17c78024a50270940304540a733656f0d60405160405180910390a4506001610112565b5060005b92915050565b60006020828403121561012a57600080fd5b81516001600160a01b038116811461014157600080fd5b9392505050565b610fd6806101576000396000f3fe608060405234801561001057600080fd5b50600436106100b45760003560e01c806368449b171161007157806368449b17146101605780636d7415851461018257806391d1485414610195578063a217fddf146101a8578063d547741f146101b0578063ee0fc121146101c357600080fd5b806301ffc9a7146100b9578063248a9ca3146100e15780632f2ff15d1461011257806330b843f81461012757806336568abe1461013a57806337d958e11461014d575b600080fd5b6100cc6100c7366004610a41565b6101ea565b60405190151581526020015b60405180910390f35b6101046100ef366004610a6b565b60009081526020819052604090206001015490565b6040519081526020016100d8565b610125610120366004610a99565b610221565b005b610125610135366004610b15565b61024c565b610125610148366004610a99565b6104f9565b61012561015b366004610be3565b610531565b61017361016e366004610c3f565b6106b5565b6040516100d893929190610c81565b610104610190366004610cfd565b610785565b6100cc6101a3366004610a99565b6108ac565b610104600081565b6101256101be366004610a99565b6108d5565b6101047f70546d1c92f8c2132ae23a23f5177aa8526356051c7510df99f50e012d22152981565b60006001600160e01b03198216637965db0b60e01b148061021b57506301ffc9a760e01b6001600160e01b03198316145b92915050565b60008281526020819052604090206001015461023c816108fa565b6102468383610907565b50505050565b7f70546d1c92f8c2132ae23a23f5177aa8526356051c7510df99f50e012d221529610276816108fa565b831580159061028457508382145b6102d55760405162461bcd60e51b815260206004820152601a60248201527f436f6c6c6563746f723a20496e76616c6964207265776172647300000000000060448201526064015b60405180910390fd5b6001600160a01b03871660009081526001602052604090205486106103375760405162461bcd60e51b8152602060048201526018602482015277086ded8d8cac6e8dee4744092dcecc2d8d2c840d2dcc8caf60431b60448201526064016102cc565b6001600160a01b038716600090815260016020526040812080548890811061036157610361610d3f565b6000918252602082206003909102019150815460ff16600281111561038857610388610c6b565b146103d55760405162461bcd60e51b815260206004820181905260248201527f436f6c6c6563746f723a207265636f7264206973206e6f742070656e64696e6760448201526064016102cc565b805460ff1916600217815560005b858110156104a6578686828181106103fd576103fd610d3f565b90506020020160208101906104129190610d55565b6001600160a01b03166340c10f198a87878581811061043357610433610d3f565b6040516001600160e01b031960e087901b1681526001600160a01b0390941660048501526020029190910135602483015250604401600060405180830381600087803b15801561048257600080fd5b505af1158015610496573d6000803e3d6000fd5b5050600190920191506103e39050565b5086886001600160a01b03167fd76f9f894179213d22e9f41a178b2cf364542f6094483c87a56c2c20eb795883888888886040516104e79493929190610d72565b60405180910390a35050505050505050565b6001600160a01b03811633146105225760405163334bd91960e11b815260040160405180910390fd5b61052c8282610999565b505050565b7f70546d1c92f8c2132ae23a23f5177aa8526356051c7510df99f50e012d22152961055b816108fa565b6001600160a01b03851660009081526001602052604090205484106105bd5760405162461bcd60e51b8152602060048201526018602482015277086ded8d8cac6e8dee4744092dcecc2d8d2c840d2dcc8caf60431b60448201526064016102cc565b6001600160a01b03851660009081526001602052604081208054869081106105e7576105e7610d3f565b6000918252602082206003909102019150815460ff16600281111561060e5761060e610c6b565b1461065b5760405162461bcd60e51b815260206004820181905260248201527f436f6c6c6563746f723a207265636f7264206973206e6f742070656e64696e6760448201526064016102cc565b805460ff1916600117815560405185906001600160a01b038816907f67813150e12a88a933a212e01460fbb9da398d9f273927860439f64efac5538f906106a59088908890610df0565b60405180910390a3505050505050565b600160205281600052604060002081815481106106d157600080fd5b600091825260209091206003909102018054600182015460028301805460ff90931695509093509061070290610e1f565b80601f016020809104026020016040519081016040528092919081815260200182805461072e90610e1f565b801561077b5780601f106107505761010080835404028352916020019161077b565b820191906000526020600020905b81548152906001019060200180831161075e57829003601f168201915b5050505050905083565b33600090815260016020526040808220815160608101909252908083815260200142815260200185858080601f016020809104026020016040519081016040528093929190818152602001838380828437600092018290525093909452505083546001818101865594825260209091208351600390920201805493949093919250839160ff19169083600281111561081f5761081f610c6b565b021790555060208201516001820155604082015160028201906108429082610ebf565b505050336001600160a01b03167f6f6034270db93da5fd160b17c178b8ce3b82d335f7458745e065df57a96857068484604051610880929190610df0565b60405180910390a2336000908152600160208190526040909120546108a59190610f7f565b9392505050565b6000918252602082815260408084206001600160a01b0393909316845291905290205460ff1690565b6000828152602081905260409020600101546108f0816108fa565b6102468383610999565b6109048133610a04565b50565b600061091383836108ac565b610991576000838152602081815260408083206001600160a01b03861684529091529020805460ff191660011790556109493390565b6001600160a01b0316826001600160a01b0316847f2f8788117e7eff1d82e926ec794901d17c78024a50270940304540a733656f0d60405160405180910390a450600161021b565b50600061021b565b60006109a583836108ac565b15610991576000838152602081815260408083206001600160a01b0386168085529252808320805460ff1916905551339286917ff6391f5c32d9c69d2a47ea670b442974b53935d1edc7fd64eb21e047a839171b9190a450600161021b565b610a0e82826108ac565b610a3d5760405163e2517d3f60e01b81526001600160a01b0382166004820152602481018390526044016102cc565b5050565b600060208284031215610a5357600080fd5b81356001600160e01b0319811681146108a557600080fd5b600060208284031215610a7d57600080fd5b5035919050565b6001600160a01b038116811461090457600080fd5b60008060408385031215610aac57600080fd5b823591506020830135610abe81610a84565b809150509250929050565b60008083601f840112610adb57600080fd5b50813567ffffffffffffffff811115610af357600080fd5b6020830191508360208260051b8501011115610b0e57600080fd5b9250929050565b60008060008060008060808789031215610b2e57600080fd5b8635610b3981610a84565b955060208701359450604087013567ffffffffffffffff80821115610b5d57600080fd5b610b698a838b01610ac9565b90965094506060890135915080821115610b8257600080fd5b50610b8f89828a01610ac9565b979a9699509497509295939492505050565b60008083601f840112610bb357600080fd5b50813567ffffffffffffffff811115610bcb57600080fd5b602083019150836020828501011115610b0e57600080fd5b60008060008060608587031215610bf957600080fd5b8435610c0481610a84565b935060208501359250604085013567ffffffffffffffff811115610c2757600080fd5b610c3387828801610ba1565b95989497509550505050565b60008060408385031215610c5257600080fd5b8235610c5d81610a84565b946020939093013593505050565b634e487b7160e01b600052602160045260246000fd5b600060038510610ca157634e487b7160e01b600052602160045260246000fd5b848252602084602084015260606040840152835180606085015260005b81811015610cda57858101830151858201608001528201610cbe565b506000608082860101526080601f19601f83011685010192505050949350505050565b60008060208385031215610d1057600080fd5b823567ffffffffffffffff811115610d2757600080fd5b610d3385828601610ba1565b90969095509350505050565b634e487b7160e01b600052603260045260246000fd5b600060208284031215610d6757600080fd5b81356108a581610a84565b6040808252810184905260008560608301825b87811015610db5578235610d9881610a84565b6001600160a01b0316825260209283019290910190600101610d85565b5083810360208501528481526001600160fb1b03851115610dd557600080fd5b8460051b915081866020830137016020019695505050505050565b60208152816020820152818360408301376000818301604090810191909152601f909201601f19160101919050565b600181811c90821680610e3357607f821691505b602082108103610e5357634e487b7160e01b600052602260045260246000fd5b50919050565b634e487b7160e01b600052604160045260246000fd5b601f82111561052c576000816000526020600020601f850160051c81016020861015610e985750805b601f850160051c820191505b81811015610eb757828155600101610ea4565b505050505050565b815167ffffffffffffffff811115610ed957610ed9610e59565b610eed81610ee78454610e1f565b84610e6f565b602080601f831160018114610f225760008415610f0a5750858301515b600019600386901b1c1916600185901b178555610eb7565b600085815260208120601f198616915b82811015610f5157888601518255948401946001909101908401610f32565b5085821015610f6f5787850151600019600388901b60f8161c191681555b5050505050600190811b01905550565b8181038181111561021b57634e487b7160e01b600052601160045260246000fdfea26469706673582212202edc4dbe2c7f43d572243b908ead6923b5842898a7ec580a603162b340d98da664736f6c63430008170033",
    "linkReferences": {}
  },
  "methodIdentifiers": {
    "CONTROLLER()": "ee0fc121",
    "DEFAULT_ADMIN_ROLE()": "a217fddf",
    "approveRecord(address,uint256,address[],uint256[])": "30b843f8",
    "getRoleAdmin(bytes32)": "248a9ca3",
    "grantRole(bytes32,address)": "2f2ff15d",
    "hasRole(bytes32,address)": "91d14854",
    "publishRecord(string)": "6d741585",
    "recordsByAddress(address,uint256)": "68449b17",
    "rejectRecord(address,uint256,string)": "37d958e1",
    "renounceRole(bytes32,address)": "36568abe",
    "revokeRole(bytes32,address)": "d547741f",
    "supportsInterface(bytes4)": "01ffc9a7"
  },
  "id": 24
}